:020000040800F2
:1000000038070020890100089101000893010008C9
:100010009501000897010008990100080000000000
:100020000000000000000000000000009B0100082C
:100030009D010008000000009F010008A1010008C8
:10004000A3010008A3010008A3010008A301000800
:10005000A3010008A3010008A3010008A3010008F0
:10006000A301000831020008A3010008A301000851
:10007000A3010008A3010008A3010008A3010008D0
:10008000A3010008A3010008A3010008A3010008C0
:10009000A3010008A3010008A3010008A3010008B0
:1000A000A301000881070008A3010008A3010008BC
:1000B000A3010008A3010008A3010008A301000890
:1000C000A3010008A3010008A3010008A301000880
:1000D000A3010008750A0008A3010008A301000895
:1000E000A3010008A3010008A301000800F002F822
:1000F00000F03AF80AA090E8000C82448344AAF188
:100100000107DA4501D100F02FF8AFF2090EBAE885
:100110000F0013F0010F18BFFB1A43F0010318473B
:10012000900B0000B00B0000103A24BF78C878C1D3
:10013000FAD8520724BF30C830C144BF04680C60ED
:10014000704700000023002400250026103A28BF35
:1001500078C1FBD8520728BF30C148BF0B60704739
:100160001FB51FBD10B510BD00F033F81146FFF7E5
:10017000F7FF00F003FD00F051F803B4FFF7F2FFC2
:1001800003BC00F0B9FC000009488047094800475B
:10019000FEE7FEE7FEE7FEE7FEE7FEE7FEE7FEE737
:1001A000FEE7FEE704480549054A064B7047000094
:1001B000D1060008ED0000083801002038070020B3
:1001C000380300203803002070477047704770479D
:1001D0007047754600F028F8AE460500694653465C
:1001E00020F00700854618B020B5FFF7DBFFBDE81B
:1001F00020404FF000064FF000074FF000084FF08E
:10020000000B21F00701AC46ACE8C009ACE8C0091E
:10021000ACE8C009ACE8C0098D4670470446AFF3AE
:1002200000802046FFF7A9FF00487047D400002057
:1002300010B5962140F6FC0000F0AEF900F00EFD7E
:1002400000F0D8FC08200149086010BD14040140EA
:1002500010B50E48806940F004000C4988610C48D4
:10026000006820F470400A4908600846006840F4BD
:100270008040086002220321002000F00BF80223D6
:1002800009221946012000F095F810BD0010024027
:100290000008014070B504460B46CE1701EB967678
:1002A000C6F38700CE1701EB9676B610A1EB860653
:1002B000B606350E1C4B9B6943F001031A4EB36121
:1002C0004FEAB63353F820300F26AE40B343174EF3
:1002D00046F82030334653F8203004FA05F61E4322
:1002E000124B43F82060124B1B6801268E403343AB
:1002F0000F4E336002F0010343B10D4B0C331B680A
:1003000001268E4033430A4E0C36336002F002035E
:1003100043B1074B08331E6801238B401E43044B37
:1003200008331E6070BD000000100240080001404C
:100330000004014000200349086001200249C1F87F
:10034000BC017047B88121420080214200B50020E5
:1003500015490861C8601420486100208861C8619F
:100360000846006840F001000860084640680F49F0
:1003700008400D494860084600680D4908400A4990
:1003800008600846006820F480200860084640683D
:1003900020F4FE0048600020886000214FF00060DB
:1003A00000F058F800BD0000001002400000FFF807
:1003B000FFFFF6FE2DE9F0410746884614461D462C
:1003C000284600F033F8C5F1040007FA00F60F20C4
:1003D000284100EA0800064306F00F06E21704EB86
:1003E000D2625211920002F1E022D2F8002121469D
:1003F000E31704EBD3635B11A4EB431C012303FA63
:100400000CF31A432046E31704EBD3635B119B0004
:1004100003F1E023C3F800210348005D40EA061021
:1004200001490855BDE8F08100E400E001460723DA
:1004300023EA01021202054B18684FF6FF03184029
:10044000034B18431043014B186070470CED00E05C
:100450000000FA05024A0A400243024B1A60704744
:1004600080FFFF1F08ED00E00848806940F00800A9
:10047000064988610648006880B205490860084658
:1004800000680449084302490860704700100240B0
:10049000040C0140000033330120034908600020B0
:1004A0000249C1F8B0017047B48121420080214265
:1004B00010B500F001F810BD0CB5002001900090BF
:1004C0003348006840F480303149086000BF30484C
:1004D000006800F4003000900198401C01900098E2
:1004E00018B90198B0F5A06FF1D12948006800F45F
:1004F000003010B10120009001E000200090009831
:10050000012843D12348006840F0100021490860C9
:100510000846006820F0030008600846006840F0C4
:10052000020008601A484068194948600846406857
:1005300048600846406840F480604860084640686B
:1005400020F47C1048600846406840F4E810486099
:100550000846006840F08070086000BF0C480068E2
:1005600000F000700028F9D00948406820F003002E
:10057000074948600846406840F00200486000BFF4
:100580000348406800F00C000828F9D10CBD0000B9
:10059000001002400020024030B54FF08044A38E8E
:1005A000228F0024224D2C80224D2C802AE0214CC9
:1005B000248884420ADA1F4C25885C1A444395FB40
:1005C000F4F41C1B4FF08045AC8605E001241A4D65
:1005D0002C601A4DC5F8BC41154C248884420ADAB7
:1005E000134C2588541A444395FBF4F4141B4FF024
:1005F00080452C8706E001240F4D083D2C600F4DEF
:10060000C5F8B4410B4C24888442D0DB084C2488C4
:100610008442CCDB0124084D2C60084DC5F8BC4158
:10062000054D083D2C60054DC5F8B44130BD0000B6
:100630002408004024040040B88121420080214267
:1006400030B504460025FFF781FE1F48006840F4DE
:1006500080301D49086000BF1B480068400C00281E
:10066000FAD04FF4806018494860A01EC4B2084612
:10067000406840EA844048600846406840F4803062
:1006800048601248006840F03200104908600E4887
:10069000006840F080700C49086000BF0A4800689C
:1006A000400E0028FAD00848406840F00200064991
:1006B000486005E004484068C0F3870505F003057D
:1006C000022DF7D130BD0000001002400020024092
:1006D00010B51348006840F0010011490860084651
:1006E0004068104908400E494860084600680E49B5
:1006F00008400B4908600846006820F48020086024
:100700000846406820F4FE0048604FF41F008860EF
:10071000FFF7CEFE4FF000600449086010BD0000F6
:10072000001002400000FFF8FFFFF6FE08ED00E0B9
:1007300070B505460C461048806940F400600E49CB
:1007400088610E480580001F04800C48203800880E
:1007500040F0010009492039088008482C380088F9
:1007600040F0010005492C39088002231922032199
:100770001846FFF71FFE70BD001002402C2C0140F0
:1007800010B50022002000211E4B1B881E4C24881F
:10079000A34207DD4FF08043188F1B8F32334FF099
:1007A00080442387174B1B88174C2488A34207DA01
:1007B0004FF08043198F1B8F323B4FF080442387CB
:1007C00000BF104B1C88104B1B885B1D9C42F8DA45
:1007D0000C4B1C880C4B1B885B1F9C42F1DD20B12D
:1007E000431C4FF08044238704E019B14B1E4FF0A7
:1007F00080442387054B1B8823F00103034C23808F
:1008000010BD00002404004024080040102C0140CA
:10081000244AD26942F00102224BDA611A469269F7
:1008200042F004029A61204A126822F00F021E4B25
:100830001A601A46126842F00B021A601A461268D1
:1008400022F0F0021A601A46126842F0B0021A60F2
:10085000DA0490851185128B42F4C042DB041A83BE
:100860001A46128B42F400621A831A46128B42F027
:1008700060021A831A46128B42F008021A831A4643
:10088000128C42F001021A841A46128C42F01002B5
:100890001A8480221A80D205128842F001021A803E
:1008A000704700000010024000080140354AD2693C
:1008B00042F00202334BDA611A46926942F00402B6
:1008C0009A61314A126822F070622F4B1A601A4600
:1008D000126842F080621A601A46126822F0704272
:1008E0001A601A46126842F080421A60274A118044
:1008F000121D1080254A283A128822F44072234B98
:10090000283B1A801A46128822F060021A801F4A79
:10091000103A128842F001021C4B103B1A801A1D3B
:10092000128842F480721B1D1A801A1D128822F050
:1009300002021B1D1A801A46128822F020021A8019
:10094000124A103A128842F01002104B103B1A80E3
:100950001A46128842F480521A800C4A203A1288B1
:1009600042F00302094B203B1A800022074B1B1F59
:100970001A80064A283A128842F00102034B283BAB
:100980001A8070470010024000080140280400400F
:10099000354AD26942F00402334BDA611A46926951
:1009A00042F008029A61314A126822F070622F4BBD
:1009B0001A601A46126842F080621A601A4612687B
:1009C00022F070421A601A46126842F080421A60A1
:1009D000274A1180121D1080254A283A128822F4D5
:1009E0004072234B283B1A801A46128822F060027C
:1009F0001A801F4A103A128842F001021C4B103B29
:100A00001A801A1D128842F480721B1D1A801A1D4A
:100A1000128822F002021B1D1A801A46128822F048
:100A200020021A80124A103A128842F01002104B2B
:100A3000103B1A801A46128842F480521A800C4ADF
:100A4000203A128842F00302094B203B1A80002210
:100A5000074B1B1F1A80064A283A128842F00102EF
:100A6000034B283B1A80704700100240000C0140E5
:100A7000280800401D49098801F0200111B31B49D5
:100A8000091D0988C8B21A49098801F40041C9B989
:100A90001749098801F4804161B10A2803D0002177
:100AA000134A118020E01249098841F40041104A9C
:100AB000118019E00D2806D10D49098841F48041C3
:100AC0000B4A118010E00A490988C1F30D01094A57
:100AD000505407490988491C054A11801146098864
:100AE000C72901DD00211180704700000038014056
:100AF000080000200C000020014600BF70470000E5
:100B00004FF0E021096921F004014FF0E02211616A
:100B1000C21700EB5272C2F3C702074B1A70194694
:100B2000097801EB4102C2EBC1114FF6FF7202EAF4
:100B3000C101024A1180704700000020020000201D
:100B400001460D4A12884A434FF0E0235A610022C1
:100B50009A6101221A6100BF4FF0E022106900F093
:100B600001021AB100F48032002AF5D000224FF0C1
:100B7000E0231A619A617047020000200920FFF704
:100B80005FFD4820FFF7BCFFFFF76EFC00214FF62A
:100B9000FF70FFF78BFE00214FF6FF70FFF7F8FEA6
:100BA000002140F28330FFF733FE4FF4E960FFF796
:100BB000C7FF01200D4908600D49C1F8B8010B4974
:100BC00008390860091F08604FF496704FF08041A3
:100BD0008886088700F00EF8632141F61F40FFF772
:100BE000A7FDFFF735FB00BFFEE70000BC812142F7
:100BF0000080214270B50024002500204FF0804184
:100C000088860887FFF796FBFFF746FC002011490E
:100C100008801149088064200107888608873220EF
:100C2000FFF78EFFC820C106088788863220FFF7AD
:100C300087FF4FF496704FF08041888608873220F6
:100C4000FFF77EFF4FF4BE704FF080410887888623
:100C500070BD0000240400402408004010B54FF48B
:100C60007A70FFF76DFFC820C106088700200C4985
:100C700008800C490880FFF70FFC00BF0848008877
:100C800040F2BC718842F9D1012007490860074948
:100C9000C1F8B0014FF47A70FFF752FF10BD0000A9
:100CA0002408004024040040B481214200802142F5
:100CB000D00C0008000000200C00000028010008F3
:100CC000DC0C00080C0000202C0700004401000888
:0C0CD00000000000000000000000000018
:04000005080000ED02
:00000001FF
